:02000000A32833
:100008008C00030E8D000B111C140D0E83008C0E3A
:100018000C0E09008207FC340C34D9349D342D347D
:10002800B534F5341C34FD34BD34950096010830E0
:10003800160203182C28950C031C25288312061475
:10004800272883120610831286148610960A1B2806
:10005800080018089600970108309500960D970D2E
:1000680064301702031C3B28643097020314910D77
:10007800950B322811080E20920018089600980156
:1000880008309500960D980D64301802031C4E2810
:1000980064309802950B4628180896009701083096
:1000A8009500960D970D0A301702031C5E280A303A
:1000B80097020314910D950B552811080E209300F3
:1000C80018089600910108309500960D910D0A3098
:1000D8001102031C71280A309102950B6928110836
:1000E8000E20940014081920130819201208192842
:1000F8009100920193011108831288006400640042
:100108006400640094016400640064006400831265
:100118000815831208198D28090892070318930AED
:10012800940F8728130808001C189C286400982836
:100138001C101C18A12864009D281C100800831698
:1001480088011F30850087308100A0308B00831222
:10015800061FBB2898209820061FBB28FC30831652
:10016800860089307C2098002D209820B52883129D
:10017800061ECB2898209820061ECB28FC30831614
:10018800860091307C2098002D209820C528831265
:10019800061DDB2898209820061DDB28FC308316D6
:1001A800860099307C2098002D209820D528831629
:1001B800860199019A019B01831206130612061102
:1001C8008617861686159C101C119C1181307C2080
:1001D800980018088F00900103108F0D900D0F08DC
:1001E800920010089300940110309100920D930D25
:1001F800940D0318032905301402031C0629053041
:1002080094020314980D910BFA282D209C182E297E
:1002180089307C208E00FB300E02031C1E296530BD
:100228001902031C1C298312061786139C142E29F5
:10023800990A2E29BE300E0203182D29653019029D
:10024800031C2B298312061786179C142E29990A3A
:100258002E2999011C19522991307C208E00FB30DF
:100268000E02031C422965301A02031C402983121E
:10027800061686121C1552299A0A5229BE300E02F9
:100288000318512965301A02031C4F2983120616D8
:1002980086161C1552299A0A52299A019C19762900
:1002A80099307C208E00FB300E02031C66296530D5
:1002B8001B02031C64298312061586119C157629D6
:1002C8009B0A7629BE300E020318752965301B0279
:1002D800031C73298312061586159C1576299B0A1B
:1002E80076299B018312051E802998209820051ED7
:0C02F80080299C141C159C159820EA28F5
:00000001FF
